:020000040800F2
:1000000000000220AD4D0008E90A0008F10A0008CE
:10001000F90A0008010B0008090B000800000000A5
:10002000000000000000000000000000110B0008AC
:100030001F0B0008000000002D0B00083B0B000800
:10004000FD4D0008FD4D0008FD4D0008FD4D000868
:10005000FD4D0008FD4D0008FD4D0008FD4D000858
:10006000FD4D0008FD4D0008FD4D0008FD4D000848
:10007000FD4D0008FD4D0008FD4D0008FD4D000838
:10008000FD4D0008FD4D0008FD4D0008FD4D000828
:10009000FD4D0008FD4D0008FD4D0008FD4D000818
:1000A000FD4D0008FD4D0008FD4D0008FD4D000808
:1000B000FD4D0008FD4D0008FD4D0008FD4D0008F8
:1000C000FD4D0008FD4D0008FD4D0008FD4D0008E8
:1000D000FD4D0008FD4D0008490B0008FD4D0008CE
:1000E000FD4D0008FD4D0008FD4D0008FD4D0008C8
:1000F000FD4D0008FD4D0008FD4D0008FD4D0008B8
:10010000FD4D0008FD4D0008FD4D0008FD4D0008A7
:10011000FD4D0008FD4D00085D0B0008FD4D000879
:10012000FD4D0008FD4D0008FD4D0008FD4D000887
:10013000FD4D0008FD4D0008FD4D0008FD4D000877
:10014000FD4D0008FD4D0008FD4D0008FD4D000867
:10015000FD4D0008FD4D0008FD4D0008FD4D000857
:10016000FD4D0008FD4D0008FD4D0008FD4D000847
:10017000FD4D0008FD4D0008FD4D0008FD4D000837
:10018000FD4D0008FD4D0008FD4D0008FD4D000827
:10019000FD4D000800000000FD4D0008FD4D000869
:1001A000FD4D0008FD4D0008FD4D0008FD4D000807
:1001B000FD4D0008FD4D0008FD4D0008FD4D0008F7
:1001C000FD4D0008FD4D0008FD4D0008FD4D0008E7
:0801D000FD4D0008FD4D000883
:1001D80010B5054C237833B9044B13B10448AFF379
:1001E80000800123237010BD0C00002000000000D7
:1001F800685C000808B5034B1BB103490348AFF31B
:10020800008008BD0000000010000020685C0008A5
:1002180053B94AB9002908BF00281CBF4FF0FF3165
:100228004FF0FF3000F088B9ADF1080C6DE904CE4D
:1002380000F006F8DDF804E0DDE9022304B07047B9
:100248002DE9F047089D8E4604468846002B4AD182
:100258008A42174662D9B2FA82F64EB1C6F1200335
:1002680001FA06F820FA03F3B74043EA0808B44055
:100278004FEA174E1FFA87FCB8FBFEF1230C0EFB62
:10028800118843EA084301FB0CF29A4209D9FB188A
:1002980001F1FF3080F0EA809A4240F2E7800239AB
:1002A8003B449A1AA3B2B2FBFEF00EFB102243EABB
:1002B800024300FB0CFC9C4509D9FB1800F1FF32F6
:1002C80080F0D6809C4540F2D3803B44023840EA17
:1002D8000140A3EB0C0300211DB1F3400022C5E946
:1002E8000032BDE8F0878B4205D90DB1C5E90001A0
:1002F80000210846F5E7B3FA83F1002946D1734592
:1003080002D3824200F20581841A6EEB03020120B7
:100318009046002DE5D0C5E90048E2E7002A00F044
:100328009080B2FA82F6002E40F0A4808A1A030C5C
:100338004FEA174E80B2BCB20121B2FBFEFC0EFBA5
:100348001C2243EA024304FB0CF29A4207D9FB1829
:100358000CF1FF3802D29A4200F2E080C4469B1AA0
:10036800B3FBFEF20EFB123340EA034302FB04F434
:100378009C4207D9FB1802F1FF3002D29C4200F2DE
:10038800CA8002461B1B42EA0C40A5E7C1F12006C1
:100398008B4022FA06F71F430EFA01F420FA06F3FF
:1003A8002EFA06FE4FEA1749234300FA01F81FFA0E
:1003B80087FCBEFBF9F01C0C09FB10EE44EA0E4466
:1003C80000FB0CFEA64502FA01F209D93C1900F11E
:1003D800FF3A80F09C80A64540F2998002383C4460
:1003E800A4EB0E041FFA83FEB4FBF9F309FB1344D4
:1003F8004EEA044403FB0CFCA44508D93C1903F15C
:10040800FF3E80F08280A4457FD9023B3C4443EA0A
:100418000040A4EB0C04A0FB02EC64457346E146E3
:1004280062D35FD05DB1B8EB030264EB090404FA50
:1004380006F622FA01F31E43CC40C5E90064002108
:100448004FE7B1FBF2FC010C41EA0E4180B240EAF1
:1004580001423B4638463C46B846BE462026B1FBDC
:10046800F7F1A2EB080241EA0C4166E7014618E7FA
:1004780010462CE7C6F120022EFA02F3B740B1402D
:1004880020FA02F24FEA174E0A43B3FBFEF8BCB259
:100498000EFB1833110C41EA034108FB04F9B04084
:1004A80089454FEA104380B23ED9791808F1FF3CDC
:1004B80001D289451FD8A1EB0901B1FBFEF909FB5F
:1004C80004F80EFB191192B242EA0142424529D2C0
:1004D800BA1809F1FF31C4D24245C2D2A9F10201CA
:1004E8003A44BEE7F0459DD2BEEB02036CEB070C25
:1004F8000138E14696E7A7EB09094944A8F1020C3F
:10050800B1FBFEF909FB04F8DBE773467FE75046C9
:1005180066E70846FDE63B44023A33E7ACF1020CD5
:100528003B441CE749469CE7A1EB0901C446B1FBE3
:10053800FEF909FB04F8C4E7704700BF80B582B034
:1005480000AF03460A46FB801346BB80FB88002B9E
:1005580011D1012240210A4801F05CFE00F00CFD97
:100568000246BB881344074A1360074B01221A70DE
:10057800064B00221A8000BF0837BD4680BD00BF69
:10058800000800486C020020700200206802002069
:1005980080B588B000AF00F08BFC00F0A1F800F047
:1005A800E5F800F05DF900F0F3F904F025FC00220D
:1005B8000121262002F0C1F8262002F0D8F80123F4
:1005C8003D4A3E493E4805F010F83D4B3D4AC3F8C8
:1005D80034223B1D00221A605A609A60DA601A6160
:1005E8004FF400537B600023BB600223FB603B1D7C
:1005F8001946354801F06AFC0023FB6109E04021F7
:10060800314801F01FFE642000F0C2FCFB69013391
:10061800FB61FB69052BF2DD002240212A4801F02D
:10062800F9FD02222949264805F067F84FF40051E0
:10063800254801F0D7FD0346FB76FB7E012B26D12A
:1006480000F09AFC0246224B1B68D31AB3F5FA7FD6
:100658001DD900F091FC03461D4A13600122402178
:10066800194801F0D7FD00F087FC034603F57A73BB
:10067800184A1360184B01221A70184B1B88013353
:100688009AB2164B1A80154B1A88104B5A80124B87
:100698001B78002BC5D000F06FFC02460D4B1B6881
:1006A8009A42BED300224021074801F0B3FD0A4B0D
:1006B80000221A70B5E700BF68030020D0020020AE
:1006C80028000020450500080008004868020020AE
:1006D800740200206C0200207002002078020020C2
:1006E80080B594B000AF07F11803382200211846EE
:1006F80005F089FA3B1D00221A605A609A60DA6098
:100708001A614FF4007001F089FE0223BB614FF4B7
:1007180080737B624023BB6200237B6307F118036D
:10072800184600F057FC0346002B01D000F018F8DB
:100738000F237B600123BB600023FB6000233B6128
:1007480000237B613B1D0021184600F055FF03463E
:10075800002B01D000F004F800BF5037BD4680BD23
:1007680080B400AF72B600BF00BFFDE780B588B0A7
:1007780000AF07F10C0300221A605A609A60DA6031
:100788001A61344BDB6C334A43F00403D364314BB6
:10079800DB6C03F00403BB60BB682E4BDB6C2D4A9B
:1007A80043F00103D3642B4BDB6C03F001037B6044
:1007B8007B68284BDB6C274A43F00203D364254B44
:1007C800DB6C03F002033B603B68002240212248B7
:1007D80001F020FD0022C021204801F01BFD4FF44C
:1007E8000053FB6000233B6101237B6107F10C038D
:1007F8001946194801F06AFB4023FB6001233B615D
:1008080000237B610023BB6107F10C0319461248E2
:1008180001F05CFBC023FB6001233B6100237B618B
:100828000023BB6107F10C0319460C4801F04EFB8D
:100838004FF40073FB604FF488133B6100237B6126
:1008480007F10C031946054801F040FB00BF2037AB
:10085800BD4680BD00100240000800480004004862
:1008680080B500AF1B4B1C4A1A601A4B1B4A5A60D2
:10087800184B00229A60174B0122DA60154B0022B0
:100888001A61144B00225A61124B00229A61114BD3
:100898000022DA610F4B00221A620E4800F0D6F9E6
:1008A8000346002B01D0FFF75BFF0021094800F049
:1008B80068FA0346002B01D0FFF752FF00210548D4
:1008C80000F0AAFA0346002B01D0FFF749FF00BF4A
:1008D80080BD00BF7C02002000580040583D5000F9
:1008E80080B59EB000AF786007F1640300221A60FB
:1008F8005A609A60DA601A6107F1100354220021E5
:10090800184605F080F97B681B681F4A934237D167
:1009180080233B6100233B6307F11003184601F075
:1009280087F80346002B01D0FFF71AFF174BDB6C43
:10093800164A43F00103D364144BDB6C03F0010344
:10094800FB60FB684FF440737B661223BB66002391
:10095800FB6600233B6704237B6707F164031946A2
:100968004FF0904001F0B2FA084B9B6D074A43F4F0
:1009780080039365054B9B6D03F48003BB60BB68E4
:1009880000BF7837BD4680BD0058004000100240C7
:1009980080B500AF244B254A1A60234B4FF4E1324F
:1009A8005A60214B00229A601F4B0022DA601E4BCE
:1009B80000221A611C4B0C225A611B4B00229A61BF
:1009C800194B0022DA61184B00221A62164B0022DA
:1009D8005A62154B00229A62082308220021124805
:1009E80004F056F80346002B01D0FFF7B9FE0021AA
:1009F8000D4804F00DF90346002B01D0FFF7B0FEB7
:100A08000021094804F042F90346002B01D0FFF702
:100A1800A7FE054804F0C3F80346002B01D0FFF7F2
:100A28009FFE00BF80BD00BFD002002000440040F0
:100A380080B59EB000AF786007F1640300221A60A9
:100A48005A609A60DA601A6107F110035422002193
:100A5800184605F0D8F87B681B681F4A934236D1C0
:100A680002233B610023BB6107F11003184600F025
:100A7800DFFF0346002B01D0FFF772FE174B9B6D7B
:100A8800164A43F400339365144B9B6D03F400330B
:100A9800FB60FB68114BDB6C104A43F00103D36425
:100AA8000E4BDB6C03F00103BB60BB680E237B6657
:100AB8000223BB660023FB6600233B6707237B6793
:100AC80007F1640319464FF0904001F0FFF900BFA9
:100AD8007837BD4680BD00BF00440040001002408A
:100AE80080B400AF00BFFDE780B400AF00BFFDE7F2
:100AF80080B400AF00BFFDE780B400AF00BFFDE7E2
:100B080080B400AF00BFFDE780B400AF00BFBD46B2
:100B18005DF8047B704780B400AF00BFBD465DF848
:100B2800047B704780B400AF00BFBD465DF8047B0E
:100B3800704780B500AF00F00DFA00BF80BD00001F
:100B480080B500AF024802F089F800BF80BD00BF41
:100B5800D002002080B500AF024804F093FA00BF2D
:100B680080BD00BF6803002080B582B000AF786008
:100B78007B681B68044A934202D1044804F0C1FF11
:100B880000BF0837BD4680BD004400402800002053
:100B980080B582B000AF78607B681B68044A9342D6
:100BA80002D1044804F0E4FF00BF0837BD4680BD09
:100BB800001000402800002080B582B000AF7860A7
:100BC8007B681B68044A934202D1044804F0E5FF9D
:100BD80000BF0837BD4680BD004400402800002003
:100BE80080B582B000AF0F4B1B6E0E4A43F0010375
:100BF80013660C4B1B6E03F001037B607B68094B8B
:100C08009B6D084A43F080539365064B9B6D03F038
:100C180080533B603B6801F0A5FC00BF0837BD4628
:100C280080BD00BF0010024080B400AF064BD3F86F
:100C38008830054A43F47003C2F8883000BFBD46C7
:100C48005DF8047B704700BF00ED00E080B582B01E
:100C580000AF78607B68002B01D101238DE07B68B1
:100C680093F84130DBB2002B06D17B68002283F871
:100C780040207868FFF734FE7B68242283F84120FF
:100C88007B681B681A687B681B6822F001021A607F
:100C98007B685A687B681B6822F070621A617B68FF
:100CA8001B689A687B681B6822F400429A607B681C
:100CB800DB68012B07D17B689A687B681B6842F464
:100CC80000429A6006E07B689A687B681B6842F479
:100CD80004429A607B68DB68022B08D17B681B683A
:100CE8005A687B681B6842F400625A6007E07B68B8
:100CF8001B685A687B681B6822F400625A607B682C
:100D08001B685B687A68126843F0007343F4004319
:100D180053607B681B68DA687B681B6822F40042B2
:100D2800DA607B681A697B685B6942EA03017B6861
:100D38009B691A027B681B680A43DA607B68D96979
:100D48007B681A6A7B681B680A431A607B681B68A1
:100D58001A687B681B6842F001021A607B680022EF
:100D68005A647B68202283F841207B6800221A633A
:100D78007B68002283F84220002318460837BD46C6
:100D880080BD80B483B000AF786039607B6893F829
:100D98004130DBB2202B38D17B6893F84030012BEF
:100DA80001D1022332E07B68012283F840207B686E
:100DB800242283F841207B681B681A687B681B68BB
:100DC80022F001021A607B681B681A687B681B683E
:100DD80022F480521A607B681B6819687B681B685C
:100DE8003A680A431A607B681B681A687B681B6844
:100DF80042F001021A607B68202283F841207B6858
:100E0800002283F84020002300E0022318460C3714
:100E1800BD465DF8047B704780B485B000AF78604C
:100E280039607B6893F84130DBB2202B39D17B687D
:100E380093F84030012B01D1022333E07B68012273
:100E480083F840207B68242283F841207B681B6854
:100E58001A687B681B6822F001021A607B681B68AD
:100E68001B68FB60FB6823F47063FB603B681B0234
:100E7800FA681343FB607B681B68FA681A607B6832
:100E88001B681A687B681B6842F001021A607B685D
:100E9800202283F841207B68002283F84020002329
:100EA80000E0022318461437BD465DF8047B7047FE
:100EB80080B582B000AF0023FB71032001F032FC43
:100EC8000F2000F00DF80346002B02D00123FB7120
:100ED80001E0FFF785FEFB7918460837BD4680BD5F
:100EE80080B584B000AF78600023FB73164B1B6895
:100EF800002B22D0154B1A68134B1B684FF47A71DC
:100F0800B1FBF3F3B2FBF3F3184601F03EFC0346E2
:100F1800002B0FD17B680F2B09D8002279684FF07E
:100F2800FF3001F00AFC0A4A7B68136007E00123DE
:100F3800FB7304E00123FB7301E00123FB73FB7BDC
:100F480018461037BD4680BD08000020000000206C
:100F58000400002080B400AF054B1A68054B1B68DD
:100F68001344034A136000BFBD465DF8047B704715
:100F7800640300200800002080B400AF034B1B6806
:100F88001846BD465DF8047B704700BF6403002027
:100F980080B584B000AF7860FFF7EEFFB8607B687B
:100FA800FB60FB68B3F1FF3F04D0094B1B68FA688C
:100FB8001344FB6000BFFFF7DFFF0246BB68D31A8C
:100FC800FA689A42F7D800BF00BF1037BD4680BD07
:100FD8000800002080B588B000AF78607B68002BDF
:100FE80001D10123FEE27B681B6803F00103002B9B
:100FF80075D0974B9B6803F00C03BB61944BDB687F
:1010080003F003037B61BB690C2B02D17B69032BC3
:1010180002D0BB69082B0BD18D4B1B6803F400333E
:10102800002B5BD07B685B68002B57D10123D9E28A
:101038007B685B68B3F5803F06D1854B1B68844AA3
:1010480043F4803313601DE07B685B68B3F5A02F21
:101058000CD17F4B1B687E4A43F4802313607C4B82
:101068001B687B4A43F4803313600BE0784B1B68A2
:10107800774A23F480331360754B1B68744A23F452
:10108800802313607B685B68002B13D0FFF774FF25
:10109800386108E0FFF770FF02463B69D31A642BFA
:1010A80001D903239EE26A4B1B6803F40033002B2B
:1010B800F0D014E0FFF760FF386108E0FFF75CFF4D
:1010C80002463B69D31A642B01D903238AE2604B99
:1010D8001B6803F40033002BF0D100E000BF7B68ED
:1010E8001B6803F00203002B75D0594B9B6803F073
:1010F8000C03BB61564BDB6803F003037B61BB69E0
:101108000C2B02D17B69022B02D0BB69042B1FD1A7
:101118004F4B1B6803F48063002B05D07B68DB68AA
:10112800002B01D101235DE2494B5B6823F0FE42AD
:101138007B681B691B06464913434B60454B1B687C
:101148001846FFF7CDFE0346002B43D0012349E2A2
:101158007B68DB68002B23D03D4B1B683C4A43F47B
:1011680080731360FFF708FF386108E0FFF704FF9A
:1011780002463B69D31A022B01D9032332E2344BCE
:101188001B6803F48063002BF0D0314B5B6823F0BD
:10119800FE427B681B691B062D4913434B601AE00E
:1011A8002B4B1B682A4A23F480731360FFF7E4FE75
:1011B800386108E0FFF7E0FE02463B69D31A022BCC
:1011C80001D903230EE2224B1B6803F48063002B32
:1011D800F0D100E000BF7B681B6803F00803002B18
:1011E80041D07B685B69002B1CD0194BD3F8943035
:1011F800174A43F00103C2F89430FFF7BDFE386187
:1012080008E0FFF7B9FE02463B69D31A022B01D961
:101218000323E7E10E4BD3F8943003F00203002BCD
:10122800EFD020E00A4BD3F89430094A23F00103A9
:10123800C2F89430FFF7A0FE38610DE0FFF79CFE7E
:1012480002463B69D31A022B06D90323CAE100BF21
:1012580000100240040000208C4BD3F8943003F0B7
:101268000203002BEAD17B681B6803F00403002B00
:1012780000F0A6800023FB77844B9B6D03F080531E
:10128800002B01D1012300E00023002B0DD07F4B60
:101298009B6D7E4A43F0805393657C4B9B6D03F0B6
:1012A8008053FB60FB680123FB77794B1B6803F4D1
:1012B8008073002B18D1764B1B68754A43F48073F2
:1012C8001360FFF759FE386108E0FFF755FE024644
:1012D8003B69D31A022B01D9032383E16C4B1B68AA
:1012E80003F48073002BF0D07B689B68012B08D136
:1012F800664BD3F89030654A43F00103C2F890304A
:1013080024E07B689B68052B10D1604BD3F89030A4
:101318005E4A43F00403C2F890305C4BD3F8903037
:101328005A4A43F00103C2F890300FE0574BD3F804
:101338009030564A23F00103C2F89030534BD3F84B
:101348009030524A23F00403C2F890307B689B68BF
:10135800002B16D0FFF710FE38610AE0FFF70CFEED
:1013680002463B69D31A41F28832934201D90323DA
:1013780038E1464BD3F8903003F00203002BEDD050
:1013880015E0FFF7F9FD38610AE0FFF7F5FD0246C1
:101398003B69D31A41F28832934201D9032321E1F0
:1013A8003A4BD3F8903003F00203002BEDD1FB7FCA
:1013B800012B05D1354B9B6D344A23F0805393653F
:1013C8007B681B6803F02003002B3CD07B689B697B
:1013D800002B1CD02D4BD3F898302C4A43F0010336
:1013E800C2F89830FFF7C8FD386108E0FFF7C4FD80
:1013F80002463B69D31A022B01D90323F2E0234B9F
:10140800D3F8983003F00203002BEFD01BE01F4BFA
:10141800D3F898301D4A23F00103C2F89830FFF73B
:10142800ABFD386108E0FFF7A7FD02463B69D31A18
:10143800022B01D90323D5E0144BD3F8983003F0DD
:101448000203002BEFD17B68DB69002B00F0C98019
:101458000E4B9B6803F00C030C2B00F083807B6819
:10146800DB69022B5ED1094B1B68084A23F08073A5
:101478001360FFF781FD38610CE0FFF77DFD024640
:101488003B69D31A022B05D90323ABE000100240B5
:1014980000700040554B1B6803F00073002BECD123
:1014A800524BDA68524B13407A68116A7A68526A6A
:1014B800013A120111437A68926A120211437A685A
:1014C800126B5208013A520511437A68526B52085E
:1014D800013A520611437A68D26AD2060A4343494E
:1014E8001343CB60414B1B68404A43F08073136041
:1014F8003E4BDB683D4A43F08073D360FFF73CFD09
:10150800386108E0FFF738FD02463B69D31A022B21
:1015180001D9032366E0354B1B6803F00073002BE9
:10152800F0D05EE0314B1B68304A23F080731360C3
:10153800FFF722FD386108E0FFF71EFD02463B6910
:10154800D31A022B01D903234CE0284B1B6803F064
:101558000073002BF0D1254BDA682449254B134042
:10156800CB603EE07B68DB69012B01D1012339E0C8
:101578001E4BDB687B617B6903F003027B681B6A97
:101588009A422CD17B6903F0F0027B685B6A013BCD
:101598001B019A4223D17B6903F4FE427B689B6A54
:1015A8001B029A421BD17B6903F078427B68DB6A95
:1015B800DB069A4213D17B6903F4C0027B681B6B7C
:1015C8005B08013B5B059A4209D17B6903F0C06265
:1015D8007B685B6B5B08013B5B069A4201D0012389
:1015E80000E0002318462037BD4680BD00100240A9
:1015F8000C809F01FCFFEEFE80B586B000AF7860DE
:10160800396000237B617B68002B01D101231EE137
:10161800914B1B6803F00F033A689A4210D98E4B1E
:101628001B6823F00F028C493B6813430B608A4BFD
:101638001B6803F00F033A689A4201D0012306E1C0
:101648007B681B6803F00103002B73D07B685B6821
:10165800032B29D1814B1B6803F00073002B01D1A8
:101668000123F4E000F09EF938613B697C4A93421B
:101678003FD97A4B9B6803F0F003002B09D07B68B5
:101688001B6803F00203002B33D07B689B68002B98
:101698002FD1724B9B6823F0F003704A43F080030C
:1016A800936080237B6124E07B685B68022B07D111
:1016B8006A4B1B6803F40033002B09D10123C6E0F1
:1016C800664B1B6803F48063002B01D10123BEE045
:1016D80000F0CEF838613B69614A934209D95F4B03
:1016E8009B6823F0F0035D4A43F0800393608023F6
:1016F8007B615A4B9B6823F003027B685B68574900
:1017080013438B60FFF738FCF8600AE0FFF734FCFE
:101718000246FB68D31A41F28832934201D9032367
:1017280095E04E4B9B6803F00C027B685B689B005E
:101738009A42EBD17B681B6803F00203002B23D08D
:101748007B681B6803F00403002B05D0434B9B68A0
:10175800424A43F4E06393607B681B6803F0080324
:10176800002B07D03D4B9B6823F47C533B4A43F442
:10177800E0639360394B9B6823F0F0027B689B68B9
:10178800364913438B6008E07B69802B05D1334BC6
:101798009B68324A23F0F00393602F4B1B6803F0D9
:1017A8000F033A689A421DD22B4B1B6823F00F0295
:1017B80029493B6813430B60FFF7DEFBF8600AE03A
:1017C800FFF7DAFB0246FB68D31A41F288329342EC
:1017D80001D903233BE0204B1B6803F00F033A6851
:1017E8009A42EDD17B681B6803F00403002B08D0F4
:1017F8001A4B9B6823F4E0627B68DB681749134344
:101808008B607B681B6803F00803002B09D0134B1F
:101818009B6823F460527B681B69DB000F49134304
:101828008B6000F025F802460C4B9B681B0903F0FF
:101838000F030C49CB5C03F01F0322FA03F30A4A97
:1018480013600A4B1B681846FFF74AFB0346184605
:101858001837BD4680BD00BF00200240001002407E
:1018680000B4C404805C00080000002004000020CC
:1018780080B487B000AF2C4B9B6803F00C03042B9B
:1018880002D12A4B3B6147E0274B9B6803F00C03CE
:10189800082B02D1264B3B613EE0234B9B6803F0AB
:1018A8000C030C2B36D1204BDB6803F00303FB60E1
:1018B8001D4BDB681B0903F00F030133BB60FB689A
:1018C800032B0CD11A4ABB68B2FBF3F3164AD26851
:1018D800120A02F07F0202FB03F37B610CE0134A59
:1018E800BB68B2FBF3F3104AD268120A02F07F0217
:1018F80002FB03F37B6100BF0B4BDB685B0E03F05D
:10190800030301335B007B607A697B68B2FBF3F306
:101918003B6101E000233B613B6918461C37BD462B
:101928005DF8047B704700BF001002400024F400FB
:1019380000127A0080B400AF034B1B681846BD46FE
:101948005DF8047B704700BF0000002080B500AF41
:10195800FFF7F0FF0246064B9B681B0A03F00703DC
:101968000449CB5C03F01F0322FA03F3184680BD39
:1019780000100240905C000880B500AFFFF7DAFF66
:101988000246064B9B68DB0A03F007030449CB5C5D
:1019980003F01F0322FA03F3184680BD001002402B
:1019A800905C000880B487B000AF1E4BDB6803F082
:1019B80003033B611B4BDB681B0903F00F03013377
:1019C800FB603B69032B0CD1174AFB68B2FBF3F3AE
:1019D800144AD268120A02F07F0202FB03F37B6109
:1019E8000CE0124AFB68B2FBF3F30E4AD268120A03
:1019F80002F07F0202FB03F37B6100BF094BDB6847
:101A08005B0E03F0030301335B00BB607A69BB68BC
:101A1800B2FBF3F37B607B6818461C37BD465DF864
:101A2800047B70470010024000127A000024F40082
:101A380080B586B000AF78600023FB740023BB74C8
:101A48007B681B6803F40023002B00F098800023B8
:101A58007B74434B9B6D03F08053002B0DD1404B9F
:101A68009B6D3F4A43F0805393653D4B9B6D03F05C
:101A78008053BB60BB6801237B743A4B1B68394AAF
:101A880043F480731360FFF777FAF86009E0FFF713
:101A980073FA0246FB68D31A022B02D90323FB749C
:101AA80005E0304B1B6803F48073002BEFD0FB7C00
:101AB800002B59D12A4BD3F8903003F440737B6143
:101AC8007B69002B1ED07B681B6D7A699A4219D0FE
:101AD800234BD3F8903023F440737B61204BD3F829
:101AE80090301F4A43F48033C2F890301C4BD3F82F
:101AF80090301B4A23F48033C2F89030184A7B692F
:101B0800C2F890307B6903F00103002B16D0FFF771
:101B180033FAF8600BE0FFF72FFA0246FB68D31A96
:101B280041F28832934202D90323FB7406E00C4B3E
:101B3800D3F8903003F00203002BECD0FB7C002B91
:101B48000BD1074BD3F8903023F440727B681B6DA0
:101B580003491343C1F8903008E0FB7CBB7405E0EF
:101B68000010024000700040FB7CBB747B7C012BA2
:101B780005D1A74B9B6DA64A23F0805393657B68DC
:101B88001B6803F00103002B0AD0A14BD3F888305F
:101B980023F003027B685B689D491343C1F88830D2
:101BA8007B681B6803F00203002B0AD0984BD3F81C
:101BB800883023F00C027B689B6895491343C1F871
:101BC80088307B681B6803F00403002B0AD0904B15
:101BD800D3F8883023F030027B68DB688C491343E4
:101BE800C1F888307B681B6803F00803002B0AD013
:101BF800874BD3F8883023F0C0027B681B6984497F
:101C08001343C1F888307B681B6803F01003002B6E
:101C18000AD07F4BD3F8883023F440727B685B6925
:101C28007B491343C1F888307B681B6803F02003A5
:101C3800002B0AD0764BD3F8883023F440627B68B7
:101C48009B6973491343C1F888307B681B6803F0AC
:101C58004003002B0AD06E4BD3F8883023F440524F
:101C68007B68DB696A491343C1F888307B681B6865
:101C780003F08003002B0AD0654BD3F8883023F497
:101C880040427B681B6A62491343C1F888307B680D
:101C98001B6803F48073002B0AD05D4BD3F888309F
:101CA80023F440327B685B6A59491343C1F8883092
:101CB8007B681B6803F40033002B0AD0544BD3F81D
:101CC8009C3023F003027B689B6A51491343C1F897
:101CD8009C307B681B6803F40073002B0AD04C4BC4
:101CE800D3F8883023F440227B68DB6A48491343E1
:101CF800C1F888307B681B6803F48063002B15D01B
:101D0800434BD3F8883023F440127B681B6B40495F
:101D18001343C1F888307B681B6BB3F5801F05D16E
:101D28003B4BDB683A4A43F48013D3607B681B68FB
:101D380003F40063002B15D0354BD3F8883023F417
:101D480040027B685B6B32491343C1F888307B687B
:101D58005B6BB3F5800F05D12D4BDB682C4A43F440
:101D68008013D3607B681B6803F48053002B15D065
:101D7800274BD3F8883023F040727B689B6B24494B
:101D88001343C1F888307B689B6BB3F1807F05D122
:101D98001F4BDB681E4A43F48013D3607B681B68C3
:101DA80003F40053002B15D0194BD3F8883023F0D7
:101DB80040627B68DB6B16491343C1F888307B6847
:101DC800DB6BB3F1006F05D1114BDB68104A43F4AC
:101DD8008013D3607B681B6803F48043002B19D001
:101DE8000B4BD3F8883023F040627B681B6C0849A2
:101DF8001343C1F888307B681B6CB3F1006F09D1BD
:101E0800034BDB68024A43F48013D36002E000BF4F
:101E1800001002407B681B6803F40043002B15D0B8
:101E2800294BD3F8883023F040527B685B6C2649F5
:101E38001343C1F888307B685B6CB3F1805F05D1D0
:101E4800214BDB68204A43F48033D3607B681B68EE
:101E580003F48033002B15D01B4BD3F8883023F0C4
:101E680040427B689B6C18491343C1F888307B68F3
:101E78009B6CB3F1804F05D1134BDB68124A43F4D6
:101E88008033D3607B681B6803F48023002B15D054
:101E98000D4BD3F89C3023F440127B68DB6C0A4965
:101EA8001343C1F89C307B68DB6CB3F5001F05D188
:101EB800054BDB68044A43F48013D360BB7C1846A7
:101EC8001837BD4680BD00BF0010024080B487B0FF
:101ED80000AF7860396000237B6164E13B681A6871
:101EE80001217B6901FA03F31340FB60FB68002BB7
:101EF80000F056813B685B6803F00303012B05D0B3
:101F08003B685B6803F00303022B30D17B689B6856
:101F18003B617B695B00032202FA03F3DB433A6906
:101F280013403B613B68DA687B695B0002FA03F3A4
:101F38003A6913433B617B683A699A607B685B68DE
:101F48003B6101227B6902FA03F3DB433A691340E0
:101F58003B613B685B681B0903F001027B6902FA7D
:101F680003F33A6913433B617B683A695A603B68FB
:101F78005B6803F00303032B09D13B685B6803F03C
:101F88000303032B1BD13B689B68012B17D07B688D
:101F9800DB683B617B695B00032202FA03F3DB43E6
:101FA8003A6913403B613B689A687B695B0002FAB7
:101FB80003F33A6913433B617B683A69DA603B682B
:101FC8005B6803F00303022B23D17B69DA087B6883
:101FD800083253F822303B617B6903F007039B000A
:101FE8000F2202FA03F3DB433A6913403B613B6873
:101FF8001A697B6903F007039B0002FA03F33A6945
:1020080013433B617B69DA087B680832396943F816
:1020180022107B681B683B617B695B00032202FA24
:1020280003F3DB433A6913403B613B685B6803F0A9
:1020380003027B695B0002FA03F33A6913433B61CD
:102048007B683A691A603B685B6803F44033002B8D
:1020580000F0A6805B4B1B6E5A4A43F001031366DF
:10206800584B1B6E03F00103BB60BB68564A7B6983
:102078009B08023352F823303B617B6903F003036A
:102088009B000F2202FA03F3DB433A6913403B61DA
:102098007B68B3F1904F1FD07B684C4A934219D0AC
:1020A8007B684B4A934213D07B684A4A93420DD0CF
:1020B8007B68494A934207D07B68484A934201D1DA
:1020C80005230AE0062308E0042306E0032304E0CE
:1020D800022302E0012300E000237A6902F00302F0
:1020E800920093403A6913433B6137497B699B08E7
:1020F80002333A6941F82320394B9B683B61FB68FE
:10210800DB433A6913403B613B685B6803F4801327
:10211800002B03D03A69FB6813433B61304A3B69A3
:1021280093602F4BDB683B61FB68DB433A691340E4
:102138003B613B685B6803F40013002B03D03A69EA
:10214800FB6813433B61264A3B69D360244B5B68B9
:102158003B61FB68DB433A6913403B613B685B6862
:1021680003F40033002B03D03A69FB6813433B6147
:102178001B4A3B6953601A4B1B683B61FB68DB4396
:102188003A6913403B613B685B6803F48033002B7A
:1021980003D03A69FB6813433B61114A3B691360FA
:1021A8007B6901337B613B681A687B6922FA03F318
:1021B800002B7FF493AE00BF00BF1C37BD465DF80F
:1021C800047B7047001002400000014000040048F2
:1021D80000080048000C004800100048001400489F
:1021E8000004014080B485B000AF78600B467B8066
:1021F8007B681A697B881340002B02D00123FB738C
:1022080001E00023FB73FB7B18461437BD465DF8DD
:10221800047B704780B483B000AF78600B467B8046
:1022280013467B707B78002B03D07A887B689A6191
:1022380002E07A887B689A6200BF0C37BD465DF879
:10224800047B704780B485B000AF78600B467B8014
:102258007B685B69FB607A88FB6813401A04FB683B
:10226800D9437B880B401A437B689A6100BF1437B7
:10227800BD465DF8047B704780B485B000AF7860D8
:102288000023FB737B68002B01D101234CE07B68A2
:1022980093F82530DBB2022B05D07B680422DA6381
:1022A8000123FB7337E07B681B681A687B681B682F
:1022B80022F001021A607B681B681A687B681B6839
:1022C80022F00E021A607B689B6C1A687B689B6C14
:1022D80022F480721A607B685B6C03F01F027B68D3
:1022E8001B6C012101FA02F25A607B68DB6C7A6888
:1022F800126D5A607B685B6D002B0CD07B685B6D40
:102308001A687B685B6D22F480721A607B689B6D2B
:102318007A68D26D5A607B68012283F825207B6831
:10232800002283F82420FB7B18461437BD465DF84D
:10233800047B704780B584B000AF78600023FB73DE
:102348007B6893F82530DBB2022B0DD07B68042222
:10235800DA637B68012283F825207B68002283F8F2
:1023680024200123FB7347E07B681B681A687B689D
:102378001B6822F001021A607B681B681A687B6878
:102388001B6822F00E021A607B689B6C1A687B68D7
:102398009B6C22F480721A607B685B6C03F01F02EE
:1023A8007B681B6C012101FA02F25A607B68DB6CC6
:1023B8007A68126D5A607B685B6D002B0CD07B6865
:1023C8005B6D1A687B685B6D22F480721A607B68AB
:1023D8009B6D7A68D26D5A607B68012283F825204C
:1023E8007B68002283F824207B689B6B002B03D03A
:1023F8007B689B6B78689847FB7B18461037BD460F
:1024080080BD80B483B000AF78607B68DB6B184612
:102418000C37BD465DF8047B7047000080B485B07A
:1024280000AF78607B68002B41D14B4B1B6803F4ED
:10243800C063B3F5806F31D1474BD3F88030464A3B
:1024480023F48073C2F88030434B1B6823F4C063C5
:10245800414A43F400731360404B1B68322202FB6D
:1024680003F33F4AA2FB03239B0C0133FB6002E00A
:10247800FB68013BFB60384B5B6903F48063B3F591
:10248800806F02D1FB68002BF2D1334B5B6903F4F8
:102498008063B3F5806F58D1032357E02E4BD3F8F0
:1024A80080302D4A23F48073C2F880304DE07B6879
:1024B800B3F5007F41D1284B1B6803F4C063B3F523
:1024C800806F31D1244BD3F88030234A43F4807392
:1024D800C2F88030204B1B6823F4C0631E4A43F4C3
:1024E800007313601D4B1B68322202FB03F31C4A66
:1024F800A2FB03239B0C0133FB6002E0FB68013B5A
:10250800FB60154B5B6903F48063B3F5806F02D100
:10251800FB68002BF2D1104B5B6903F48063B3F5C1
:10252800806F12D1032311E00B4BD3F880300A4A95
:1025380043F48073C2F8803007E0074B1B6823F42C
:10254800C063054A43F480631360002318461437B8
:10255800BD465DF8047B7047007000400000002015
:1025680083DE1B4380B400AF054B9B68044A43F4E9
:102578008043936000BFBD465DF8047B704700BF91
:102588000070004080B485B000AF78607B6803F0CD
:102598000703FB600C4BDB68BB60BA684FF6FF03B0
:1025A8001340BB60FB681A02BB68134343F0BF6368
:1025B80043F40033BB60044ABB68D36000BF1437E0
:1025C800BD465DF8047B704700ED00E080B400AFC5
:1025D800044BDB681B0A03F007031846BD465DF889
:1025E800047B704700ED00E080B483B000AF034681
:1025F800FB7197F90730002B0BDBFB7903F01F0207
:10260800074997F907305B09012000FA02F241F8FF
:10261800232000BF0C37BD465DF8047B704700BF20
:1026280000E100E080B483B000AF03463960FB717D
:1026380097F90730002B0ADB3B68DAB20C4997F9A7
:1026480007301201D2B20B4483F800230AE03B683A
:10265800DAB20849FB7903F00F03043B1201D2B246
:102668000B441A7600BF0C37BD465DF8047B7047F3
:1026780000E100E000ED00E080B489B000AFF86050
:10268800B9607A60FB6803F00703FB61FB69C3F17B
:102698000703042B28BF0423BB61FB690433062B03
:1026A80002D9FB69033B00E000237B614FF0FF3256
:1026B800BB6902FA03F3DA43BB681A407B699A40A4
:1026C8004FF0FF317B6901FA03F3D9437B680B4074
:1026D800134318462437BD465DF8047B7047000055
:1026E80080B582B000AF78607B68013BB3F1807F32
:1026F80001D301230FE00A4A7B68013B53600F2195
:102708004FF0FF30FFF78EFF054B00229A60044B15
:1027180007221A60002318460837BD4680BD00BF4F
:1027280010E000E080B582B000AF78607868FFF70D
:1027380029FF00BF0837BD4680BD80B586B000AF11
:102748000346B9607A60FB73FFF740FF78617A68E7
:10275800B9687869FFF790FF024697F90F3011467C
:102768001846FFF75FFF00BF1837BD4680BD80B52C
:1027780082B000AF0346FB7197F907301846FFF7A0
:1027880033FF00BF0837BD4680BD80B582B000AFBB
:1027980078607868FFF7A4FF034618460837BD46F7
:1027A80080BD80B58AB002AFF860B9603B6013465F
:1027B800FB80FB68D3F88830202B40F08680BB680C
:1027C800002B02D0FB88002B01D101237EE0FB689F
:1027D8000022C3F89020FB682122C3F88820FEF766
:1027E800CBFB7861FB68FA88A3F85420FB68FA8869
:1027F800A3F85620FB689B68B3F5805F08D1FB6897
:102808001B69002B04D10023FB61BB68BB6103E09B
:10281800BB68FB610023BB613AE03B6800937B69BE
:1028280000228021F86801F0C3F90346002B05D087
:10283800FB682022C3F88820032347E0FB69002BAC
:102848000BD1BB691B881A46FB681B68C2F30802D8
:102858009A62BB690233BB6107E0FB691A78FB68BF
:102868001B689A62FB690133FB61FB68D3F8883007
:1028780003F02103212B09D1FB68B3F856309BB232
:10288800013B9AB2FB68A3F8562001E001231DE042
:10289800FB68B3F856309BB2002BBED13B6800935F
:1028A8007B6900224021F86801F082F90346002B79
:1028B80005D0FB682022C3F88820032306E0FB68C4
:1028C8002022C3F88820002300E00223184620377E
:1028D800BD4680BD80B58AB000AFF860B9601346C8
:1028E800FB80FB68D3F88C30202B37D1BB68002BDA
:1028F80002D0FB88002B01D1012330E0FB680022C5
:10290800DA66FB681B68184A93421FD0FB681B688D
:102918005B6803F40003002B18D0FB681B687B611D
:102928007B6953E8003F3B613B6943F080637B620E
:10293800FB681B681A467B6A3B62FA61F9693A6A66
:1029480041E80023BB61BB69002BE6D1FB881A462E
:10295800B968F86801F09AF9034600E002231846BE
:102968002837BD4680BD00BF0080004080B59AB0C2
:1029780000AF78607B681B68BB64BB6C53E8003FA2
:102988007B647B6C23F490737B667B681B681A46B8
:102998007B6E7B653A65396D7A6D41E80023FB648F
:1029A800FB6C002BE6D17B681B6808337B637B6B71
:1029B80053E8003F3B633B6B23F0805323F0010354
:1029C8003B667B681B6808333A6E3A64FB63F96BB5
:1029D8003A6C41E80023BB63BB6B002BE3D17B68F7
:1029E800DB6E012B18D17B681B683B623B6A53E89E
:1029F800003FFB61FB6923F01003FB657B681B68E4
:102A08001A46FB6DFB62BA62B96AFA6A41E80023AA
:102A18007B627B6A002BE6D17B681B689B6803F0AE
:102A28004003402B3BD17B681B680833FB60FB6885
:102A380053E8003FBB60BB6823F04003BB657B687D
:102A48001B680833BA6DBA617B617969BA6941E874
:102A580000233B613B69002BE5D17B68D3F88030CC
:102A6800002B1CD07B68D3F8803000229A637B68E7
:102A7800D3F880301846FFF7FFFB0346002B0ED033
:102A88007B68D3F880301846FFF7BBFC0346202B41
:102A980005D17B681022C3F89020032313E07B68DC
:102AA8001B680F221A627B681B689A697B681B681F
:102AB80042F008029A617B682022C3F88C207B6868
:102AC8000022DA66002318466837BD4680BD00003C
:102AD80080B59AB000AF78607B681B68BB64BB6C3C
:102AE80053E8003F7B647B6C23F490737B667B68C0
:102AF8001B681A467B6E7B653A65396D7A6D41E8CD
:102B08000023FB64FB6C002BE6D17B681B68083351
:102B18007B637B6B53E8003F3B633B6B23F0805345
:102B280023F001033B667B681B6808333A6E3A64FE
:102B3800FB63F96B3A6C41E80023BB63BB6B002B6A
:102B4800E3D17B68DB6E012B18D17B681B683B6285
:102B58003B6A53E8003FFB61FB6923F01003FB6508
:102B68007B681B681A46FB6DFB62BA62B96AFA6A2F
:102B780041E800237B627B6A002BE6D17B681B68F7
:102B88009B6803F04003402B50D17B681B680833D7
:102B9800FB60FB6853E8003FBB60BB6823F0400361
:102BA800BB657B681B680833BA6DBA617B6179695C
:102BB800BA6941E800233B613B69002BE5D17B689A
:102BC800D3F88030002B17D07B68D3F88030224AA6
:102BD8009A637B68D3F880301846FFF7ABFB03464F
:102BE800002B34D07B68D3F880309B6B7A68D2F89E
:102BF8008020104698472AE07B6800229A657B6807
:102C08001B680F221A627B681B689A697B681B68BD
:102C180042F008029A617B682022C3F88C207B6806
:102C28000022DA66786800F065FB10E07B68002215
:102C38009A657B681B680F221A627B682022C3F89A
:102C48008C207B680022DA66786800F053FB00234A
:102C580018466837BD4680BDC13F000880B5BAB088
:102C680000AF78607B681B68DB69C7F8E4307B6875
:102C78001B681B68C7F8E0307B681B689B68C7F84F
:102C8800DC30D7F8E42040F60F031340C7F8D830FB
:102C9800D7F8D830002B1BD1D7F8E43003F0200345
:102CA800002B15D0D7F8E03003F02003002B05D116
:102CB800D7F8DC3003F08053002B09D07B685B6FBA
:102CC800002B00F000837B685B6F78689847FAE216
:102CD800D7F8D830002B00F02381D7F8DC208D4BB3
:102CE8001340002B06D1D7F8E0208B4B1340002B64
:102CF80000F01681D7F8E43003F00103002B11D05F
:102D0800D7F8E03003F48073002B0BD07B681B6886
:102D180001221A627B68D3F8903043F001027B6885
:102D2800C3F89020D7F8E43003F00203002B11D049
:102D3800D7F8DC3003F00103002B0BD07B681B684D
:102D480002221A627B68D3F8903043F004027B6851
:102D5800C3F89020D7F8E43003F00403002B11D017
:102D6800D7F8DC3003F00103002B0BD07B681B681D
:102D780004221A627B68D3F8903043F002027B6821
:102D8800C3F89020D7F8E43003F00803002B17D0DD
:102D9800D7F8E03003F02003002B05D1D7F8DC206A
:102DA8005C4B1340002B0BD07B681B6808221A620F
:102DB8007B68D3F8903043F008027B68C3F8902012
:102DC800D7F8E43003F40063002B12D0D7F8E030D2
:102DD80003F08063002B0CD07B681B684FF4006203
:102DE8001A627B68D3F8903043F020027B68C3F8FE
:102DF80090207B68D3F89030002B00F06682D7F8DB
:102E0800E43003F02003002B13D0D7F8E03003F0B0
:102E18002003002B05D1D7F8DC3003F08053002BBA
:102E280007D07B685B6F002B03D07B685B6F78688B
:102E380098477B68D3F89030C7F8D4307B681B6814
:102E48009B6803F04003402B05D0D7F8D43003F03B
:102E58002803002B54D0786801F03AF87B681B6887
:102E68009B6803F04003402B46D17B681B680833FE
:102E7800C7F89C30D7F89C3053E8003FC7F8983023
:102E8800D7F8983023F04003C7F8D0307B681B6828
:102E98000833D7F8D020C7F8A820C7F8A430D7F847
:102EA800A410D7F8A82041E80023C7F8A030D7F825
:102EB800A030002BD9D17B68D3F88030002B17D0F5
:102EC8007B68D3F88030154A9A637B68D3F88030E2
:102ED8001846FFF72FFA0346002B19D07B68D3F862
:102EE80080309B6B7A68D2F88020104698470FE0B4
:102EF8007868FDF761FE0BE07868FDF75DFE07E096
:102F08007868FDF759FE7B680022C3F89020DCE161
:102F180000BFDAE10100001020010004A53F00080D
:102F28007B68DB6E012B40F07081D7F8E43003F04A
:102F38001003002B00F06981D7F8E03003F010038C
:102F4800002B00F062817B681B6810221A627B6884
:102F58001B689B6803F04003402B40F0D8807B68D7
:102F6800D3F880301B685B68A7F8BE30B7F8BE306E
:102F7800002B00F0AF807B68B3F85C30B7F8BE2058
:102F88009A4280F0A7807B68B7F8BE20A3F85E203D
:102F98007B68D3F880301B681B6803F02003002B84
:102FA80040F087807B681B68C7F88830D7F888307E
:102FB80053E8003FC7F88430D7F8843023F480738F
:102FC800C7F8B8307B681B681A46D7F8B830C7F816
:102FD8009430C7F89020D7F89010D7F8942041E89B
:102FE8000023C7F88C30D7F88C30002BDAD17B68F7
:102FF8001B6808337B677B6F53E8003F3B673B6F79
:1030080023F00103C7F8B4307B681B680833D7F88E
:10301800B420C7F88020FB67F96FD7F8802041E813
:103028000023BB67BB6F002BE1D17B681B680833AB
:103038003B663B6E53E8003FFB65FB6D23F04003A6
:10304800C7F8B0307B681B680833D7F8B020FA6639
:10305800BB66B96EFA6E41E800237B667B6E002B77
:10306800E3D17B682022C3F88C207B680022DA66D3
:103078007B681B68FB64FB6C53E8003FBB64BB6C5C
:1030880023F01003C7F8AC307B681B681A46D7F8E2
:10309800AC30BB657A65796DBA6D41E800233B6554
:1030A8003B6D002BE4D17B68D3F880301846FFF7DE
:1030B800E3F87B6802221A677B68B3F85C207B68B8
:1030C800B3F85E309BB2D31A9BB21946786800F009
:1030D8001BF9FCE07B68B3F85C30B7F8BE209A4275
:1030E80040F0F5807B68D3F880301B681B6803F0DC
:1030F8002003202B40F0EB807B6802221A677B6854
:10310800B3F85C301946786800F0FEF8DFE07B68B9
:10311800B3F85C207B68B3F85E309BB2D31AA7F88B
:10312800CE307B68B3F85E309BB2002B00F0D180C4
:10313800B7F8CE30002B00F0CC807B681B68BB63EF
:10314800BB6B53E8003F7B637B6B23F49073C7F83A
:10315800C8307B681B681A46D7F8C8307B643A6465
:10316800396C7A6C41E80023FB63FB6B002BE4D1DC
:103178007B681B6808337B627B6A53E8003F3B62CD
:103188003B6A23F0805323F00103C7F8C4307B68FF
:103198001B680833D7F8C4203A63FB62F96A3A6BB4
:1031A80041E80023BB62BB6A002BE1D17B68202287
:1031B800C3F88C207B680022DA667B6800225A6795
:1031C8007B681B683B613B6953E8003FFB60FB6819
:1031D80023F01003C7F8C0307B681B681A46D7F87D
:1031E800C030FB61BA61B969FA6941E800237B61C3
:1031F8007B69002BE4D17B6802221A67B7F8CE30CE
:103208001946786800F080F863E0D7F8E43003F4F2
:103218008013002B0ED0D7F8DC3003F48003002B8A
:1032280008D07B681B684FF480121A62786801F036
:1032380098FC51E0D7F8E43003F08003002B14D059
:10324800D7F8E03003F08003002B05D1D7F8DC3045
:1032580003F40003002B08D07B689B6F002B3AD047
:103268007B689B6F7868984735E0D7F8E43003F0BF
:103278004003002B09D0D7F8E03003F04003002BBF
:1032880003D0786800F0B9FE26E0D7F8E43003F4FC
:103298000003002B09D0D7F8E03003F08043002B5F
:1032A80003D0786801F071FC16E0D7F8E43003F039
:1032B8008073002B10D0D7F8E030002B0CDA786838
:1032C80001F059FC08E000BF06E000BF04E000BFC1
:1032D80002E000BF00E000BFE837BD4680BD00BF88
:1032E80080B483B000AF786000BF0C37BD465DF88E
:1032F800047B704780B483B000AF786000BF0C37A0
:10330800BD465DF8047B704780B483B000AF786039
:103318000B467B8000BF0C37BD465DF8047B7047C9
:103328002DE9B04F8CB000AF7861002387F82A30C0
:103338007B699A687B691B691A437B695B691A43D5
:103348007B69DB691343FB627B691B681A68AA4BBC
:1033580013407A691268F96A0B4313607B691B682A
:103368005B6823F440517B69DA687B691B680A4310
:103378005A607B699B69FB627B691B689F4A934221
:1033880004D07B691B6AFA6A1343FB627B691B687A
:103398009B6823F06E4323F430637A691268F96AF4
:1033A8000B4393607B691B68DB6A23F00F017B6921
:1033B8005A6A7B691B680A43DA627B691B68904A10
:1033C800934225D18F4BD3F8883003F00303032BA6
:1033D8001AD801A252F823F0F1330008013400088A
:1033E800F933000809340008012387F82B3016E167
:1033F800022387F82B3012E1042387F82B300EE1E3
:10340800082387F82B300AE1102387F82B3006E1D0
:103418007B691B687C4A934238D17A4BD3F8883051
:1034280003F00C030C2B2DD801A252F823F000BF97
:103438006D3400088D3400088D3400088D34000880
:103448007D3400088D3400088D3400088D34000860
:10345800753400088D3400088D3400088D34000858
:1034680085340008002387F82B30D8E0022387F83A
:103478002B30D4E0042387F82B30D0E0082387F8DA
:103488002B30CCE0102387F82B30C8E07B691B6811
:103498005E4A934225D15B4BD3F8883003F0300362
:1034A800302B16D0302B18D8202B0AD0202B14D82C
:1034B800002B02D0102B08D00FE0002387F82B3008
:1034C800ADE0022387F82B30A9E0042387F82B30DE
:1034D800A5E0082387F82B30A1E0102387F82B30CC
:1034E8009DE07B691B684A4A934225D1454BD3F836
:1034F800883003F0C003C02B16D0C02B18D8802BFF
:103508000AD0802B14D8002B02D0402B08D00FE013
:10351800002387F82B3082E0022387F82B307EE0E7
:10352800042387F82B307AE0082387F82B3076E0DD
:10353800102387F82B3072E07B691B68354A934269
:103548002AD1304BD3F8883003F44073B3F5407F69
:103558001AD0B3F5407F1BD8B3F5007F0CD0B3F574
:10356800007F15D8002B03D0B3F5807F08D00FE07B
:10357800002387F82B3052E0022387F82B304EE0E7
:10358800042387F82B304AE0082387F82B3046E0DD
:10359800102387F82B3042E07B691B68174A934257
:1035A8003AD1184BD3F8883003F44063B3F5406F31
:1035B8001AD0B3F5406F1BD8B3F5006F0CD0B3F534
:1035C800006F15D8002B03D0B3F5806F08D00FE03B
:1035D800002387F82B3022E0022387F82B301EE0E7
:1035E800042387F82B301AE0082387F82B3016E0DD
:1035F800102387F82B3012E0F369FFCF00800040DA
:1036080000380140001002400044004000480040DB
:10361800004C004000500040102387F82B307B6995
:103628001B68AE4A934240F0978097F82B30082BDE
:1036380023D801A252F823F0653600088336000823
:103648006D36000883360008733600088336000894
:1036580083360008833600087B360008FEF776F9C3
:10366800786210E09E4B7B620DE0FEF701F978620C
:1036780009E04FF400437B6205E000237B620123ED
:1036880087F82A3000BF7B6A002B00F030817B6905
:103698005B6A944A32F813301A467B6AB3FBF2F33A
:1036A800BB617B695A6813465B001344BA699A4246
:1036B80005D37B695B681B03BA699A4203D9012366
:1036C80087F82A3013E17B6A0022BB60FA607B69C5
:1036D8005B6A844A32F813309BB200223B607A60FE
:1036E800D7E90023D7E90201FCF792FD02460B4611
:1036F800104619464FF000024FF000030B0243EA50
:103708001063020279694968490800200C46054699
:1037180012EB040843EB05097B695B6800229A46B3
:10372800934652465B4640464946FCF771FD0246C1
:103738000B4613463B623B6AB3F5407F08D33B6AAE
:10374800B3F5801F04D27B691B683A6ADA60CEE061
:10375800012387F82A30CAE07B69DB69B3F5004F9B
:1037680066D197F82B30082B27D801A252F823F0FE
:103778009D370008A5370008AD370008C337000893
:10378800B3370008C3370008C3370008C337000839
:10379800BB370008FEF7DAF8786214E0FEF7ECF8B9
:1037A800786210E04E4B7B620DE0FEF761F87862BC
:1037B80009E04FF400437B6205E000237B620123AC
:1037C80087F82A3000BF7B6A002B00F090807B6965
:1037D8005B6A444A32F813301A467B6AB3FBF2F349
:1037E8005A007B695B685B081A447B695B68B2FBBB
:1037F800F3F33B623B6A0F2B16D93B6AB3F5803F64
:1038080012D23B6A9BB223F00F03FB833B6A5B082F
:103818009BB203F007039AB2FB8B1343FB837B69CC
:103828001B68FA8BDA6062E0012387F82A305EE0D1
:1038380097F82B30082B28D801A252F823F000BFA4
:103848006D380008753800087D380008933800087E
:103858008338000893380008933800089338000824
:103868008B380008FEF772F8786214E0FEF784F8E7
:10387800786210E01A4B7B620DE0FDF7F9FF786281
:1038880009E04FF400437B6205E000237B620123DB
:1038980087F82A3000BF7B6A002B28D07B695B6AD7
:1038A800104A32F813301A467B6AB3FBF2F27B698E
:1038B8005B685B081A447B695B68B2FBF3F33B62A5
:1038C8003B6A0F2B10D93B6AB3F5803F0CD23B6A99
:1038D8009AB27B691B68DA6009E000BF008000408B
:1038E8000024F400985C0008012387F82A307B69DB
:1038F8000122A3F86A207B690122A3F868207B696A
:1039080000225A677B6900229A6797F82A3018467E
:103918003037BD46BDE8B08F80B483B000AF786063
:103928007B689B6A03F00803002B0AD07B681B683E
:103938005B6823F400417B689A6B7B681B680A43C9
:103948005A607B689B6A03F00103002B0AD07B68EE
:103958001B685B6823F400317B68DA6A7B681B6844
:103968000A435A607B689B6A03F00203002B0AD063
:103978007B681B685B6823F480317B681A6B7B6803
:103988001B680A435A607B689B6A03F00403002B98
:103998000AD07B681B685B6823F480217B685A6BBC
:1039A8007B681B680A435A607B689B6A03F01003B4
:1039B800002B0AD07B681B689B6823F480517B68C6
:1039C800DA6B7B681B680A439A607B689B6A03F022
:1039D8002003002B0AD07B681B689B6823F40051E6
:1039E8007B681A6C7B681B680A439A607B689B6AD1
:1039F80003F04003002B1AD07B681B685B6823F434
:103A080080117B685A6C7B681B680A435A607B6824
:103A18005B6CB3F5801F0AD17B681B685B6823F475
:103A2800C0017B689A6C7B681B680A435A607B6894
:103A38009B6A03F08003002B0AD07B681B685B68D5
:103A480023F400217B68DA6C7B681B680A435A60A0
:103A580000BF0C37BD465DF8047B704780B598B051
:103A680002AF78607B680022C3F89020FDF784FAE3
:103A780078657B681B681B6803F00803082B2FD147
:103A88006FF07E4300937B6D00224FF4001178683D
:103A980000F08EF80346002B22D07B681B68BB63BE
:103AA800BB6B53E8003F7B637B6B23F080033B6574
:103AB8007B681B681A463B6D7B643A64396C7A6C88
:103AC80041E80023FB63FB6B002BE6D17B682022D7
:103AD800C3F888207B68002283F88420032363E0EE
:103AE8007B681B681B6803F00403042B49D16FF043
:103AF8007E4300937B6D00224FF48001786800F0CC
:103B080057F80346002B3CD07B681B687B627B6AB6
:103B180053E8003F3B623B6A23F49073FB647B6885
:103B28001B681A46FB6C3B63FA62F96A3A6B41E818
:103B38000023BB62BB6A002BE6D17B681B68083395
:103B48003B613B6953E8003FFB60FB6823F00103DE
:103B5800BB647B681B680833BA6CFA61BB61B969DE
:103B6800FA6941E800237B617B69002BE5D17B681A
:103B78002022C3F88C207B68002283F8842003234A
:103B880012E07B682022C3F888207B682022C3F8D3
:103B98008C207B680022DA667B6800221A677B68C3
:103BA800002283F88420002318465837BD4680BD7C
:103BB80080B584B000AFF860B9603B601346FB7114
:103BC8004FE0BB69B3F1FF3F4BD0FDF7D5F9024693
:103BD8003B68D31ABA699A4202D3BB69002B01D158
:103BE80003234EE0FB681B681B6803F00403002BEB
:103BF80037D0BB68802B34D0BB68402B31D0FB68F2
:103C08001B68DB6903F00803082B10D1FB681B68ED
:103C180008221A62F86800F05BF9FB680822C3F80A
:103C28009020FB68002283F88420012329E0FB68A8
:103C38001B68DB6903F40063B3F5006F11D1FB68FF
:103C48001B684FF400621A62F86800F041F9FB68DB
:103C58002022C3F89020FB68002283F884200323E5
:103C68000FE0FB681B68DA69BB681340BA689A42C0
:103C78000CBF01230023DBB21A46FB799A42A0D07D
:103C8800002318461037BD4680BD000080B4A3B09D
:103C980000AFF860B9601346FB80FB68BA689A65A4
:103CA800FB68FA88A3F85C20FB68FA88A3F85E2012
:103CB800FB6800225A67FB689B68B3F5805F0ED1EA
:103CC800FB681B69002B05D1FB6840F2FF12A3F8C3
:103CD80060202DE0FB68FF22A3F8602028E0FB6845
:103CE8009B68002B0DD1FB681B69002B04D1FB6876
:103CF800FF22A3F860201BE0FB687F22A3F8602066
:103D080016E0FB689B68B3F1805F0DD1FB681B6907
:103D1800002B04D1FB687F22A3F8602008E0FB6831
:103D28003F22A3F8602003E0FB680022A3F860208C
:103D3800FB680022C3F89020FB682222C3F88C207D
:103D4800FB681B6808337B667B6E53E8003F3B6665
:103D58003B6E43F00103C7F88430FB681B680833E7
:103D6800D7F884203A67FB66F96E3A6F41E800237A
:103D7800BB66BB6E002BE3D1FB685B6EB3F1005FE3
:103D88004FD1FB68B3F86830FA889A4249D3FB6888
:103D98009B68B3F5805F07D1FB681B69002B03D1D3
:103DA800FB68474A5A6702E0FB68464A5A67FB685D
:103DB8001B69002B1AD0FB681B683B653B6D53E8F9
:103DC800003FFB64FB6C43F48073C7F88030FB68EA
:103DD8001B681A46D7F88030FB65BA65B96DFA6D6D
:103DE80041E800237B657B6D002BE4D1FB681B68F1
:103DF8000833FB63FB6B53E8003FBB63BB6B43F0CB
:103E08008053FB67FB681B680833FA6FBA647B64EE
:103E1800796CBA6C41E800233B643B6C002BE5D11C
:103E280046E0FB689B68B3F5805F07D1FB681B69B8
:103E3800002B03D1FB68244A5A6702E0FB68234A37
:103E48005A67FB681B69002B19D0FB681B68BB62AB
:103E5800BB6A53E8003F7B627B6A43F490737B67DD
:103E6800FB681B681A467B6F7B633A63396B7A6B16
:103E780041E80023FB62FB6A002BE6D118E0FB68EF
:103E88001B687B617B6953E8003F3B613B6943F0FA
:103E98002003BB67FB681B681A46BB6F3B62FA616D
:103EA800F9693A6A41E80023BB61BB69002BE6D196
:103EB800002318468C37BD465DF8047B704700BF69
:103EC8002D470008C943000811420008594000085E
:103ED80080B495B000AF78607B681B687B637B6BB0
:103EE80053E8003F3B633B6B23F49073FB647B68B0
:103EF8001B681A46FB6C3B64FA63F96B3A6C41E841
:103F08000023BB63BB6B002BE6D17B681B680833BF
:103F18003B623B6A53E8003FFB61FB6923F0805337
:103F280023F00103BB647B681B680833BA6CFA6230
:103F3800BB62B96AFA6A41E800237B627B6A002B9C
:103F4800E3D17B68DB6E012B18D17B681B68FB60B3
:103F5800FB6853E8003FBB60BB6823F010037B6439
:103F68007B681B681A467B6CBB617A617969BA69A0
:103F780041E800233B613B69002BE6D17B682022A6
:103F8800C3F88C207B680022DA667B6800225A67B7
:103F980000BF5437BD465DF8047B704780B584B0D8
:103FA80000AF78607B689B6AFB60F868FCF704FEEA
:103FB80000BF1037BD4680BD80B584B000AF7860C3
:103FC8007B689B6AFB60FB681B680F221A62FB68B0
:103FD8001B689A69FB681B6842F008029A61FB68D3
:103FE8002022C3F88C20FB680022DA66F868FFF705
:103FF80081F900BF1037BD4680BD80B588B000AFDD
:1040080078607B681B68FB60FB6853E8003FBB6017
:10401800BB6823F04003FB617B681B681A46FB6999
:10402800BB617A617969BA6941E800233B613B6900
:10403800002BE6D17B682022C3F888207B68002209
:104048009A677868FFF74CF900BF2037BD4680BDF6
:1040580080B59CB000AF78607B68B3F86030A7F893
:104068006E307B68D3F88C30222B40F0BE807B68A2
:104078001B685B6AA7F86C30B7F86C30D9B2B7F830
:104088006E30DAB27B689B6D0A40D2B21A707B68D8
:104098009B6D5A1C7B689A657B68B3F85E309BB24F
:1040A800013B9AB27B68A3F85E207B68B3F85E3068
:1040B8009BB2002B40F0A1807B681B68FB64FB6C03
:1040C80053E8003FBB64BB6C23F49073BB667B680A
:1040D8001B681A46BB6EBB657A65796DBA6D41E897
:1040E80000233B653B6D002BE6D17B681B680833DA
:1040F800BB63BB6B53E8003F7B637B6B23F001031F
:104108007B667B681B6808337A6E7A643B64396C1B
:104118007A6C41E80023FB63FB6B002BE5D17B68DD
:104128002022C3F88C207B6800225A677B68002213
:104138001A677B681B68334A93421FD07B681B68E9
:104148005B6803F40003002B18D07B681B687B6254
:104158007B6A53E8003F3B623B6A23F080633B661F
:104168007B681B681A463B6E3B63FA62F96A3A6BD6
:1041780041E80023BB62BB6A002BE6D17B68DB6E9B
:10418800012B2ED17B680022DA667B681B683B61B5
:104198003B6953E8003FFB60FB6823F01003FB65B5
:1041A8007B681B681A46FB6DFB61BA61B969FA69DD
:1041B80041E800237B617B69002BE6D17B681B68A3
:1041C800DB6903F01003102B03D17B681B681022F6
:1041D8001A627B68B3F85C3019467868FFF794F880
:1041E8000BE07868FCF7C0FC07E07B681B689A69FD
:1041F8007B681B6842F008029A6100BF7037BD46B1
:1042080080BD00BF0080004080B59CB000AF7860E2
:104218007B68B3F86030A7F86E307B68D3F88C30D1
:10422800222B40F0BE807B681B685B6AA7F86C3065
:104238007B689B6DBB66B7F86C20B7F86E3013408F
:104248009AB2BB6E1A807B689B6D9A1C7B689A65D4
:104258007B68B3F85E309BB2013B9AB27B68A3F8E7
:104268005E207B68B3F85E309BB2002B40F0A180E3
:104278007B681B68BB64BB6C53E8003F7B647B6C4A
:1042880023F490737B667B681B681A467B6E7B659C
:104298003A65396D7A6D41E80023FB64FB6C002BAD
:1042A800E6D17B681B6808337B637B6B53E8003F70
:1042B8003B633B6B23F001033B667B681B68083359
:1042C8003A6E3A64FB63F96B3A6C41E80023BB63CE
:1042D800BB6B002BE5D17B682022C3F88C207B6860
:1042E80000225A677B6800221A677B681B68334A7A
:1042F80093421FD07B681B685B6803F40003002BA4
:1043080018D07B681B683B623B6A53E8003FFB613F
:10431800FB6923F08063FB657B681B681A46FB6DAD
:10432800FB62BA62B96AFA6A41E800237B627B6A77
:10433800002BE6D17B68DB6E012B2ED17B68002237
:10434800DA667B681B68FB60FB6853E8003FBB606C
:10435800BB6823F01003BB657B681B681A46BB6DFE
:10436800BB617A617969BA6941E800233B613B69BD
:10437800002BE6D17B681B68DB6903F01003102B68
:1043880003D17B681B6810221A627B68B3F85C3023
:1043980019467868FEF7B8FF0BE07868FCF7E4FB8D
:1043A80007E07B681B689A697B681B6842F0080213
:1043B8009A6100BF7037BD4680BD00BF00800040D5
:1043C80080B5ACB000AF78607B68B3F86030A7F810
:1043D800AA307B681B68DB69C7F8AC307B681B6850
:1043E8001B68C7F8A4307B681B689B68C7F8A030B7
:1043F8007B68D3F88C30222B40F083817B68B3F83C
:104408006830A7F89E3026E17B681B685B6AA7F8CE
:104418009C30B7F89C30D9B2B7F8AA30DAB27B68CA
:104428009B6D0A40D2B21A707B689B6D5A1C7B68E0
:104438009A657B68B3F85E309BB2013B9AB27B68A1
:10444800A3F85E207B681B68DB69C7F8AC30D7F837
:10445800AC3003F00703002B53D0D7F8AC3003F08F
:104468000103002B11D0D7F8A43003F48073002B7C
:104478000BD07B681B6801221A627B68D3F89030E6
:1044880043F001027B68C3F89020D7F8AC3003F002
:104498000203002B11D0D7F8A03003F00103002B42
:1044A8000BD07B681B6802221A627B68D3F89030B5
:1044B80043F004027B68C3F89020D7F8AC3003F0CF
:1044C8000403002B11D0D7F8A03003F00103002B10
:1044D8000BD07B681B6804221A627B68D3F8903083
:1044E80043F002027B68C3F890207B68D3F89030D1
:1044F800002B06D07868FCF75FFB7B680022C3F8C6
:1045080090207B68B3F85E309BB2002B40F0A3800C
:104518007B681B683B673B6F53E8003FFB66FB6E9D
:1045280023F48073C7F898307B681B681A46D7F85D
:104538009830FB67BA67B96FFA6F41E800237B6769
:104548007B6F002BE4D17B681B680833FB65FB6D30
:1045580053E8003FBB65BB6D23F0805323F0010394
:10456800C7F894307B681B680833D7F89420BA667C
:104578007B66796EBA6E41E800233B663B6E002B82
:10458800E1D17B682022C3F88C207B6800225A671F
:104598007B6800221A677B681B68604A934221D0B7
:1045A8007B681B685B6803F40003002B1AD07B68E8
:1045B8001B68BB64BB6C53E8003F7B647B6C23F0D7
:1045C8008063C7F890307B681B681A46D7F890302C
:1045D8007B653A65396D7A6D41E80023FB64FB6CB5
:1045E800002BE4D17B68DB6E012B30D17B68002285
:1045F800DA667B681B687B637B6B53E8003F3B6331
:104608003B6B23F01003C7F88C307B681B681A4695
:10461800D7F88C303B64FA63F96B3A6C41E80023B5
:10462800BB63BB6B002BE4D17B681B68DB6903F0C1
:104638001003102B03D17B681B6810221A627B6859
:10464800B3F85C3019467868FEF75EFE0EE07868CD
:10465800FCF78AFA0AE0B7F89E30002B06D0D7F8A4
:10466800AC3003F02003002B7FF4CEAE7B68B3F8A8
:104678005E30A7F88A30B7F88A30002B49D07B68BB
:10468800B3F86830B7F88A209A4242D27B681B6830
:1046980008333B623B6A53E8003FFB61FB6923F048
:1046A8008053C7F884307B681B680833D7F88420A8
:1046B800FA62BB62B96AFA6A41E800237B627B6AE4
:1046C800002BE3D17B68164A5A677B681B68FB603E
:1046D800FB6853E8003FBB60BB6843F02003C7F8A2
:1046E80080307B681B681A46D7F88030BB617A61D6
:1046F8007969BA6941E800233B613B69002BE4D141
:1047080007E07B681B689A697B681B6842F00802AF
:104718009A6100BFB037BD4680BD00BF0080004031
:104728005940000880B5AEB000AF78607B68B3F838
:104738006030A7F8B2307B681B68DB69C7F8B43013
:104748007B681B681B68C7F8AC307B681B689B6874
:10475800C7F8A8307B68D3F88C30222B40F08781CB
:104768007B68B3F86830A7F8A6302AE17B681B6835
:104778005B6AA7F8A4307B689B6DC7F8A030B7F8D0
:10478800A420B7F8B23013409AB2D7F8A0301A80F4
:104798007B689B6D9A1C7B689A657B68B3F85E3072
:1047A8009BB2013B9AB27B68A3F85E207B681B68CA
:1047B800DB69C7F8B430D7F8B43003F00703002B2F
:1047C80053D0D7F8B43003F00103002B11D0D7F839
:1047D800AC3003F48073002B0BD07B681B6801227C
:1047E8001A627B68D3F8903043F001027B68C3F803
:1047F8009020D7F8B43003F00203002B11D0D7F87B
:10480800A83003F00103002B0BD07B681B68022241
:104818001A627B68D3F8903043F004027B68C3F8CF
:104828009020D7F8B43003F00403002B11D0D7F848
:10483800A83003F00103002B0BD07B681B6804220F
:104848001A627B68D3F8903043F002027B68C3F8A1
:1048580090207B68D3F89030002B06D07868FCF75E
:10486800ABF97B680022C3F890207B68B3F85E3010
:104878009BB2002B40F0A5807B681B687B677B6F31
:1048880053E8003F3B673B6F23F48073C7F89C30C5
:104898007B681B681A46D7F89C30C7F88030FA67DF
:1048A800F96FD7F8802041E80023BB67BB6F002B66
:1048B800E2D17B681B6808333B663B6E53E8003FD8
:1048C800FB65FB6D23F0805323F00103C7F8983094
:1048D8007B681B680833D7F89820FA66BB66B96E00
:1048E800FA6E41E800237B667B6E002BE1D17B6882
:1048F8002022C3F88C207B6800225A677B6800223C
:104908001A677B681B68604A934221D07B681B68E2
:104918005B6803F40003002B1AD07B681B68FB64F8
:10492800FB6C53E8003FBB64BB6C23F08063C7F8A3
:1049380094307B681B681A46D7F89430BB657A6553
:10494800796DBA6D41E800233B653B6D002BE4D1DE
:104958007B68DB6E012B30D17B680022DA667B68CE
:104968001B68BB63BB6B53E8003F7B637B6B23F027
:104978001003C7F890307B681B681A46D7F8903048
:104988007B643A64396C7A6C41E80023FB63FB6B07
:10499800002BE4D17B681B68DB6903F01003102B44
:1049A80003D17B681B6810221A627B68B3F85C30FD
:1049B80019467868FEF7A8FC0EE07868FCF7D4F88A
:1049C8000AE0B7F8A630002B06D0D7F8B43003F0C9
:1049D8002003002B7FF4CAAE7B68B3F85E30A7F8DB
:1049E8008E30B7F88E30002B49D07B68B3F868302A
:1049F800B7F88E209A4242D27B681B6808337B62E4
:104A08007B6A53E8003F3B623B6A23F08053C7F858
:104A180088307B681B680833D7F888203A63FB62C4
:104A2800F96A3A6B41E80023BB62BB6A002BE3D109
:104A38007B68164A5A677B681B683B613B6953E889
:104A4800003FFB60FB6843F02003C7F884307B68B5
:104A58001B681A46D7F88430FB61BA61B969FA69EC
:104A680041E800237B617B69002BE4D107E07B6888
:104A78001B689A697B681B6842F008029A6100BF4C
:104A8800B837BD4680BD00BF008000401142000815
:104A980080B586B000AFF860B9607A603B60FB68AB
:104AA800002B01D1012358E0FB68D3F88830002B94
:104AB80006D1FB68002283F88420F868FBF7B8FF6A
:104AC800FB682422C3F88820FB681B681A68FB6807
:104AD8001B6822F001021A60FB689B6A002B02D057
:104AE800F868FEF719FFF868FEF71AFC0346012B71
:104AF80001D1012331E0FB681B689A68FB681B68D9
:104B080042F480429A60FB681B689B6823F400416A
:104B1800FB681B68BA680A439A607B685B057B611F
:104B28003B681B047A6913437B61FB681B681B683D
:104B380023F07F7323F44033FA68126879690B43D2
:104B48001360FB681B681A68FB681B6842F0010267
:104B58001A60F868FEF782FF034618461837BD4604
:104B680080BD80B483B000AF786000BF0C37BD460D
:104B78005DF8047B704780B483B000AF786000BFF5
:104B88000C37BD465DF8047B704780B483B000AF36
:104B9800786000BF0C37BD465DF8047B704780B471
:104BA80085B000AF78607B6893F88430012B01D121
:104BB800022327E07B68012283F884207B68242273
:104BC800C3F888207B681B681B68FB607B681B68D0
:104BD8001A687B681B6822F001021A60FB6823F0E0
:104BE8000053FB607B6800225A667B681B68FA6882
:104BF8001A607B682022C3F888207B68002283F82B
:104C08008420002318461437BD465DF8047B70479E
:104C180080B584B000AF786039607B6893F88430E1
:104C2800012B01D102232DE07B68012283F8842027
:104C38007B682422C3F888207B681B681B68FB609C
:104C48007B681B681A687B681B6822F001021A607F
:104C58007B681B689B6823F060417B681B683A6827
:104C68000A439A60786800F04FF87B681B68FA6816
:104C78001A607B682022C3F888207B68002283F8AA
:104C88008420002318461037BD4680BD80B584B007
:104C980000AF786039607B6893F88430012B01D1CC
:104CA80002232DE07B68012283F884207B6824227C
:104CB800C3F888207B681B681B68FB607B681B68DF
:104CC8001A687B681B6822F001021A607B681B68FF
:104CD8009B6823F060617B681B683A680A439A60A6
:104CE800786800F011F87B681B68FA681A607B68BE
:104CF8002022C3F888207B68002283F884200023C0
:104D080018461037BD4680BD80B485B000AF7860C6
:104D18007B685B6E002B08D17B680122A3F86A20B0
:104D28007B680122A3F8682031E00823FB7308237D
:104D3800BB737B681B689B685B0EDBB203F00703E1
:104D48007B737B681B689B685B0FDBB203F0070310
:104D58003B73BB7B3A7B11498A5C02FB03F33A7BCA
:104D68000F498A5C93FBF2F39AB27B68A3F86A2036
:104D7800FB7B7A7B09498A5C02FB03F37A7B08494F
:104D88008A5C93FBF2F39AB27B68A3F8682000BFB1
:104D98001437BD465DF8047B704700BFB05C00085F
:104DA800B85C00080D488546FBF73EFF0C480D49E6
:104DB8000D4A002302E0D458C4500433C4188C426E
:104DC800F9D30A4A0A4C002301E013600432A242D4
:104DD800FBD300F021FFFBF7DBFBFEE7000002201E
:104DE800000000200C000020D05E00080C0000200D
:104DF800B4030020FEE7000080B500AF0C4B0D4A5D
:104E08001A600B4B0F225A60094B00229A60084B1C
:104E180040F2D562DA60064B00229A61044800F03D
:104E280031F80346002B01D0FBF79AFC00BF80BD88
:104E3800680300200010004080B584B000AF78609F
:104E48007B681B680D4A934213D10D4B9B6D0C4A2E
:104E580043F0100393650A4B9B6D03F01003FB604E
:104E6800FB68002200213620FDF767FC3620FDF79D
:104E78007EFC00BF1037BD4680BD00BF001000405B
:104E88000010024080B582B000AF78607B68002BCC
:104E980001D1012349E07B6893F83D30DBB2002B58
:104EA80006D17B68002283F83C207868FFF7C4FFAE
:104EB8007B68022283F83D207B681A687B6804338C
:104EC8001946104600F056FA7B68012283F84820FC
:104ED8007B68012283F83E207B68012283F83F200B
:104EE8007B68012283F840207B68012283F84120F7
:104EF8007B68012283F842207B68012283F84320E3
:104F08007B68012283F844207B68012283F84520CE
:104F18007B68012283F846207B68012283F84720BA
:104F28007B68012283F83D20002318460837BD46D8
:104F380080BD000080B485B000AF78607B6893F8CE
:104F48003D30DBB2012B01D0012354E07B68022203
:104F580083F83D207B681B68DA687B681B6842F031
:104F68000102DA607B681B68264A934222D07B687C
:104F78001B68B3F1804F1DD07B681B68224A93429F
:104F880018D07B681B68214A934213D07B681B6842
:104F98001F4A93420ED07B681B681E4A934209D071
:104FA8007B681B681C4A934204D07B681B681B4AB9
:104FB800934215D17B681B689A68194B1340FB60B4
:104FC800FB68062B15D0FB68B3F5803F11D07B68D2
:104FD8001B681A687B681B6842F001021A6008E0C7
:104FE8007B681B681A687B681B6842F001021A60BC
:104FF80000E000BF002318461437BD465DF8047B67
:10500800704700BF002C0140000400400008004029
:10501800000C0040003401400040014000500140B5
:105028000700010080B483B000AF78607B681B681C
:10503800DA687B681B6822F00102DA607B681B680B
:105048001B6A03F0113323F08853002B0FD17B68C0
:105058001B681A6A44F244431340002B07D17B684B
:105068001B681A687B681B6822F001021A607B685B
:10507800012283F83D20002318460C37BD465DF811
:10508800047B704780B584B000AF78607B681B688C
:10509800DB68FB607B681B681B69BB60BB6803F04F
:1050A8000203002B20D0FB6803F00203002B1BD067
:1050B8007B681B686FF002021A617B6801221A770D
:1050C8007B681B689B6903F00303002B03D0786897
:1050D80000F031F905E0786800F023F9786800F00D
:1050E80034F97B6800221A77BB6803F00403002BAD
:1050F80020D0FB6803F00403002B1BD07B681B68DF
:105108006FF004021A617B6802221A777B681B68B9
:105118009B6903F44073002B03D0786800F00BF907
:1051280005E0786800F0FDF8786800F00EF97B6813
:1051380000221A77BB6803F00803002B20D0FB6815
:1051480003F00803002B1BD07B681B686FF0080274
:105158001A617B6804221A777B681B68DB6903F095
:105168000303002B03D0786800F0E5F805E07868C1
:1051780000F0D7F8786800F0E8F87B6800221A7722
:10518800BB6803F01003002B20D0FB6803F010036A
:10519800002B1BD07B681B686FF010021A617B68BC
:1051A80008221A777B681B68DB6903F44073002BBD
:1051B80003D0786800F0BFF805E0786800F0B1F82F
:1051C800786800F0C2F87B6800221A77BB6803F0A1
:1051D8000103002B0CD0FB6803F00103002B07D060
:1051E8007B681B686FF001021A617868FBF7D0FCD6
:1051F800BB6803F08003002B04D1BB6803F40053A1
:10520800002B0CD0FB6803F08003002B07D07B68D1
:105218001B686FF402521A61786800F063F9BB6882
:1052280003F48073002B0CD0FB6803F08003002B81
:1052380007D07B681B686FF480721A61786800F089
:105248005BF9BB6803F04003002B0CD0FB6803F04C
:105258004003002B07D07B681B686FF040021A617F
:10526800786800F07CF8BB6803F02003002B0CD0B2
:10527800FB6803F02003002B07D07B681B686FF0E6
:1052880020021A61786800F023F9BB6803F48013E0
:10529800002B0CD0FB6803F48013002B07D07B682D
:1052A8001B686FF480121A61786800F02FF9BB68E8
:1052B80003F40013002B0CD0FB6803F40013002B3D
:1052C80007D07B681B686FF400121A61786800F0D9
:1052D80027F9BB6803F48003002B0CD0FB6803F4A8
:1052E8008003002B07D07B681B686FF480021A616B
:1052F800786800F01FF9BB6803F40003002B0CD09A
:10530800FB6803F40003002B07D07B681B686FF46D
:1053180000021A61786800F017F900BF1037BD461F
:1053280080BD80B483B000AF786000BF0C37BD4645
:105338005DF8047B704780B483B000AF786000BF2D
:105348000C37BD465DF8047B704780B483B000AF6E
:10535800786000BF0C37BD465DF8047B704780B4A9
:1053680083B000AF786000BF0C37BD465DF8047BA2
:105378007047000080B485B000AF786039607B6802
:105388001B68FB607B68494A934217D07B68B3F17E
:10539800804F13D07B68464A93420FD07B68454ABA
:1053A80093420BD07B68444A934207D07B68434AB8
:1053B800934203D07B68424A934208D1FB6823F0AA
:1053C8007003FB603B685B68FA681343FB607B68AB
:1053D800364A934223D07B68B3F1804F1FD07B6855
:1053E800334A93421BD07B68324A934217D07B687A
:1053F800314A934213D07B68304A93420FD07B687E
:10540800304A93420BD07B682F4A934207D07B687F
:105418002E4A934203D07B68294A934208D1FB68FD
:1054280023F44073FB603B68DB68FA681343FB6056
:10543800FB6823F080023B685B691343FB603B68B1
:105448009A687B68DA623B681A687B689A627B684C
:10545800164A934213D07B68184A93420FD07B6850
:10546800184A93420BD07B68174A934207D07B684F
:10547800164A934203D07B68114A934203D13B6892
:105488001A697B681A637B681B6843F004027B68AF
:105498001A607B6801225A617B68FA681A6000BF4B
:1054A8001437BD465DF8047B704700BF002C0140EF
:1054B8000004004000080040000C00400034014097
:1054C80000500140004001400044014000480140B4
:1054D80080B483B000AF786000BF0C37BD465DF87C
:1054E800047B704780B483B000AF786000BF0C378E
:1054F800BD465DF8047B704780B483B000AF786028
:1055080000BF0C37BD465DF8047B704780B483B09C
:1055180000AF786000BF0C37BD465DF8047B70476C
:1055280080B483B000AF786000BF0C37BD465DF82B
:10553800047B704780B483B000AF786000BF0C373D
:10554800BD465DF8047B704780B483B000AF7860D7
:1055580000BF0C37BD465DF8047B704780B485B04A
:1055680000AF78600B467B804FF6FF73FB8100230A
:10557800BB8113E0BB897A6813441A78FB89DBB2D4
:105588005340FB72FB891B0A9AB2FB7A094931F82E
:1055980013305340FB81BB890133BB81BA897B88B7
:1055A8009A42E7D3FB8918461437BD465DF8047B59
:1055B800704700BFC05C000880B582B000AF78605B
:1055C8007B681B681846FDF7D1F97B680022A3F8B1
:1055D8000A217B6818687B68093301221946FDF7A0
:1055E80079F900BF0837BD4680BD80B584B000AFEB
:1055F800F860B9607A60FB704FF410720021F868A7
:1056080000F001FBFB68BA681A60FB687A685A60A8
:10561800FB68FA781A72FB680022A3F80A21FB6873
:10562800002283F81022FB68002283F80C21FB6813
:105638001868FB68093301221946FDF74BF900BFCA
:105648001037BD4680BD80B582B000AF78600B468C
:105658007B807B6818687B6803F20D117A88642365
:10566800FDF79FF80346002B07D17B68D3F820325B
:105678005A1C7B68C3F8202206E07B68D3F82C32DA
:105688005A1C7B68C3F82C2200BF0837BD4680BD72
:1056980080B584B000AF78600B46FB701346BB70D2
:1056A8007B681A7A7B6883F80D21FB7863F07F03A7
:1056B800DAB27B6883F80E217B68BA7883F80F2109
:1056C8007B6803F20D1303211846FFF747FF0346D3
:1056D800FB81FB89DAB27B6883F81021FB891B0AFE
:1056E8009BB2DAB27B6883F8112105217868FFF74D
:1056F800AAFF00BF1037BD4680BD80B58CB000AF93
:10570800F860B9601346FB80FB6893F80C31DBB294
:10571800002B00F0F381FB68002283F80C21FB6862
:10572800D3F81C325A1CFB68C3F81C22FB68B3F878
:105738000A31032B03D8F868FFF73EFFDEE1FB6868
:10574800B3F80A31023BFA6813445B7A1AB2FB6871
:10575800B3F80A31013BF9680B445B7A1BB21B02B0
:105768001BB213431BB2BB84FB6803F10902FB683D
:10577800B3F80A31023B9BB219461046FFF7EEFE1A
:1057880003467B84BA8C7B8C9A420AD0FB68D3F898
:1057980024325A1CFB68C3F82422F868FFF70CFF70
:1057A800ACE1FB685A7AFB681B7A9A4203D0F86826
:1057B800FFF702FFA2E1FB689B7A87F82130FB68BC
:1057C800DB7A1BB21B021AB2FB681B7B1BB21343AA
:1057D8001BB2FB83FB685B7B1BB21B021AB2FB6824
:1057E8009B7B1BB213431BB2BB8397F82130102B52
:1057F80000F0D880102B00F37681032B03D0062B02
:1058080000F087806FE1FA8BBB8B1A44FB889A42C1
:1058180010DCFB68D3F83032002B13D0FB68D3F8C8
:105828003032FA8B10469847034683F00103DBB207
:10583800002B07D097F8213002221946F868FFF7A5
:1058480027FF58E1FB681A7AFB6883F80D21FB688B
:1058580097F8212083F80E21BB8BDBB25B00DAB20C
:10586800FB6883F80F210023FB8524E0FA8BFB8D6E
:1058780013445B00BA6813441B881B0A9AB2FB8D59
:105888005B000333D1B2FA6813440A4683F80D214A
:10589800FA8BFB8D13445B00BA6813441A88FB8D9E
:1058A80002335B00D1B2FA6813440A4683F80D212B
:1058B800FB8D0133FB85FA8DBB8B9A42D6D3BB8B0C
:1058C8005B009BB203337B82FB6803F20D137A8A79
:1058D80011461846FFF742FE03463B827B8A3A8A06
:1058E800D1B2FA6813440A4683F80D213B8A1B0A91
:1058F8009AB27B8A0133D1B2FA6813440A4683F814
:105908000D217B8A02339BB21946F868FFF79BFE8C
:10591800F1E0FA8BFB889A4210D2FB68D3F8303258
:10592800002B13D0FB68D3F83032FA8B1046984717
:10593800034683F00103DBB2002B07D097F8213030
:1059480002221946F868FFF7A3FED4E0FB8B5B0040
:10595800BA681344BA8B1A80FB68D3F83432002B28
:1059680006D0FB68D3F83432B98BFA8B10469847C7
:105978000023BB620EE0FA68BB6A13440933197846
:10598800FA68BB6A134403F20D130A461A70BB6A1D
:105998000133BB62BB6A072BEDDD0821F868FFF70E
:1059A80052FEA8E0BB8B7B83FB68DB7B7B76FA8BA4
:1059B8007B8B1A44FB889A4210DCFB68D3F83032A0
:1059C800002B13D0FB68D3F83032FA8B1046984777
:1059D800034683F00103DBB2002B07D097F8213090
:1059E80002221946F868FFF753FE84E07A7E7B8B23
:1059F8005B009A4207D097F8213003221946F868CD
:105A0800FFF746FE77E00023FB842CE0FB8C5B006D
:105A18000733FA6813445B7A1BB21B021AB2FB8C79
:105A280004335B00F9680B445B7A1BB213431BB267
:105A3800BB82FA8BFB8C13445B00BA681344BA8AA6
:105A48001A80FB68D3F83432002B09D0FB68D3F8EE
:105A58003432F98BFA8C0A4492B2B98A10469847C4
:105A6800FB8C0133FB84FA8C7B8B9A42CED3FB6888
:105A78001A7AFB6883F80D21FB6897F8212083F8D0
:105A88000E21FB8B1B0A9BB2DAB2FB6883F80F214D
:105A9800FB8BDAB2FB6883F810217B8B1B0A9BB265
:105AA800DAB2FB6883F811217B8BDAB2FB6883F8E2
:105AB8001221FB6803F20D1306211846FFF74EFD6D
:105AC8000346FB82FB8ADAB2FB6883F81321FB8A60
